{
  "_format": "hh-sol-artifact-1",
  "contractName": "SaleContractFactory",
  "sourceName": "contracts/SaleContractFactory.sol",
  "abi": [
    {
      "anonymous": false,
      "inputs": [
        {
          "indexed": false,
          "internalType": "address",
          "name": "tokenSaleAddress",
          "type": "address"
        },
        {
          "components": [
            {
              "internalType": "uint32",
              "name": "tokenID",
              "type": "uint32"
            },
            {
              "internalType": "uint8",
              "name": "decimals",
              "type": "uint8"
            }
          ],
          "indexed": false,
          "internalType": "struct Vesting.Token",
          "name": "token",
          "type": "tuple"
        },
        {
          "indexed": false,
          "internalType": "address",
          "name": "senderAdd",
          "type": "address"
        }
      ],
      "name": "CreatedSaleContract",
      "type": "event"
    },
    {
      "anonymous": false,
      "inputs": [
        {
          "indexed": true,
          "internalType": "address",
          "name": "previousOwner",
          "type": "address"
        },
        {
          "indexed": true,
          "internalType": "address",
          "name": "newOwner",
          "type": "address"
        }
      ],
      "name": "OwnershipTransferred",
      "type": "event"
    },
    {
      "inputs": [
        {
          "internalType": "uint64",
          "name": "_startTime",
          "type": "uint64"
        },
        {
          "internalType": "uint64",
          "name": "_endTime",
          "type": "uint64"
        },
        {
          "internalType": "uint256",
          "name": "_minDepositAmount",
          "type": "uint256"
        },
        {
          "internalType": "uint256",
          "name": "_maxDepositAmount",
          "type": "uint256"
        },
        {
          "internalType": "uint256",
          "name": "_totalDeposit",
          "type": "uint256"
        },
        {
          "internalType": "uint256",
          "name": "_tokenPrice",
          "type": "uint256"
        },
        {
          "internalType": "uint256",
          "name": "_totalDepositPerUser",
          "type": "uint256"
        },
        {
          "components": [
            {
              "internalType": "uint32",
              "name": "tokenID",
              "type": "uint32"
            },
            {
              "internalType": "uint8",
              "name": "decimals",
              "type": "uint8"
            }
          ],
          "internalType": "struct Vesting.Token",
          "name": "_token",
          "type": "tuple"
        },
        {
          "components": [
            {
              "internalType": "bool",
              "name": "whitelist",
              "type": "bool"
            },
            {
              "internalType": "bool",
              "name": "isFeatured",
              "type": "bool"
            }
          ],
          "internalType": "struct SaleType.Options",
          "name": "_options",
          "type": "tuple"
        },
        {
          "components": [
            {
              "internalType": "uint32",
              "name": "startTime",
              "type": "uint32"
            },
            {
              "internalType": "uint32",
              "name": "unlockInterval",
              "type": "uint32"
            },
            {
              "internalType": "uint8",
              "name": "percentageToMint",
              "type": "uint8"
            }
          ],
          "internalType": "struct Vesting.VestingConfig",
          "name": "vestingConfig",
          "type": "tuple"
        },
        {
          "internalType": "string",
          "name": "_metadataURI",
          "type": "string"
        }
      ],
      "name": "createSaleContract",
      "outputs": [],
      "stateMutability": "nonpayable",
      "type": "function"
    },
    {
      "inputs": [],
      "name": "owner",
      "outputs": [
        {
          "internalType": "address",
          "name": "",
          "type": "address"
        }
      ],
      "stateMutability": "view",
      "type": "function"
    },
    {
      "inputs": [],
      "name": "renounceOwnership",
      "outputs": [],
      "stateMutability": "nonpayable",
      "type": "function"
    },
    {
      "inputs": [
        {
          "internalType": "address",
          "name": "newOwner",
          "type": "address"
        }
      ],
      "name": "transferOwnership",
      "outputs": [],
      "stateMutability": "nonpayable",
      "type": "function"
    }
  ],
  "bytecode": "0x608060405234801561001057600080fd5b50600061001b61006a565b600080546001600160a01b0319166001600160a01b0383169081178255604051929350917f8be0079c531659141344cd1fd0a4f28419497f9722a3daafe3b4186f6b6457e0908290a35061006e565b3390565b6125f58061007d6000396000f3fe60806040523480156200001157600080fd5b5060043610620000525760003560e01c80635b86c2071462000057578063715018a614620000705780638da5cb5b146200007a578063f2fde38b146200009c575b600080fd5b6200006e62000068366004620004b0565b620000b3565b005b6200006e6200019e565b620000846200022e565b60405162000093919062000646565b60405180910390f35b6200006e620000ad36600462000480565b6200023d565b620000bd62000307565b6001600160a01b0316620000d06200022e565b6001600160a01b031614620001025760405162461bcd60e51b8152600401620000f990620006d2565b60405180910390fd5b60008b8b8b8b8b8b8b8b8b8b8b6040516200011d906200030b565b620001339b9a9998979695949392919062000707565b604051809103906000f08015801562000150573d6000803e3d6000fd5b5090507f09bf63de85eadee2e80fd7b81fed1a0e1be4ab92d404321dddbb723df220a04281863360405162000188939291906200065a565b60405180910390a1505050505050505050505050565b620001a862000307565b6001600160a01b0316620001bb6200022e565b6001600160a01b031614620001e45760405162461bcd60e51b8152600401620000f990620006d2565b600080546040516001600160a01b03909116907f8be0079c531659141344cd1fd0a4f28419497f9722a3daafe3b4186f6b6457e0908390a3600080546001600160a01b0319169055565b6000546001600160a01b031690565b6200024762000307565b6001600160a01b03166200025a6200022e565b6001600160a01b031614620002835760405162461bcd60e51b8152600401620000f990620006d2565b6001600160a01b038116620002ac5760405162461bcd60e51b8152600401620000f9906200068c565b600080546040516001600160a01b03808516939216917f8be0079c531659141344cd1fd0a4f28419497f9722a3daafe3b4186f6b6457e091a3600080546001600160a01b0319166001600160a01b0392909216919091179055565b3390565b611dd780620007e983390190565b803580151581146200032a57600080fd5b919050565b600082601f83011262000340578081fd5b813567ffffffffffffffff8111156200035d576200035d620007d2565b62000372601f8201601f19166020016200079e565b81815284602083860101111562000387578283fd5b816020850160208301379081016020019190915292915050565b600060408284031215620003b3578081fd5b620003bf60406200079e565b9050620003cc8262000319565b8152620003dc6020830162000319565b602082015292915050565b600060608284031215620003f9578081fd5b6200040560606200079e565b9050620004128262000440565b8152620004226020830162000440565b602082015262000435604083016200046e565b604082015292915050565b803563ffffffff811681146200032a57600080fd5b803567ffffffffffffffff811681146200032a57600080fd5b803560ff811681146200032a57600080fd5b60006020828403121562000492578081fd5b81356001600160a01b0381168114620004a9578182fd5b9392505050565b60008060008060008060008060008060008b8d036101e0811215620004d3578788fd5b620004de8d62000455565b9b50620004ee60208e0162000455565b9a5060408d8101359a5060608e0135995060808e0135985060a08e0135975060c08e0135965060df198201121562000524578485fd5b506200053160406200079e565b6200053f60e08e0162000440565b8152620005506101008e016200046e565b60208201529350620005678d6101208e01620003a1565b9250620005798d6101608e01620003e7565b91506101c08c013567ffffffffffffffff81111562000596578182fd5b620005a48e828f016200032f565b9150509295989b509295989b9093969950565b60008151808452815b81811015620005de57602081850181015186830182015201620005c0565b81811115620005f05782602083870101525b50601f01601f19169290920160200192915050565b805163ffffffff16825260209081015160ff16910152565b63ffffffff8082511683528060208301511660208401525060ff60408201511660408301525050565b6001600160a01b0391909116815260200190565b6001600160a01b03848116825260808201906200067b602084018662000605565b808416606084015250949350505050565b60208082526026908201527f4f776e61626c653a206e6577206f776e657220697320746865207a65726f206160408201526564647265737360d01b606082015260800190565b6020808252818101527f4f776e61626c653a2063616c6c6572206973206e6f7420746865206f776e6572604082015260600190565b60006101e067ffffffffffffffff808f168452808e166020850152508b60408401528a60608401528960808401528860a08401528760c08401526200075060e084018862000605565b8551151561012084015260208601511515610140840152620007776101608401866200061d565b806101c08401526200078c81840185620005b7565b9e9d5050505050505050505050505050565b604051601f8201601f1916810167ffffffffffffffff81118282101715620007ca57620007ca620007d2565b604052919050565b634e487b7160e01b600052604160045260246000fdfe60806040523480156200001157600080fd5b5060405162001dd738038062001dd7833981016040819052620000349162000453565b60006200004062000224565b600080546001600160a01b0319166001600160a01b0383169081178255604051929350917f8be0079c531659141344cd1fd0a4f28419497f9722a3daafe3b4186f6b6457e0908290a35083600960008201518160000160006101000a81548163ffffffff021916908363ffffffff16021790555060208201518160000160046101000a81548160ff021916908360ff1602179055509050508a600260006101000a8154816001600160401b0302191690836001600160401b0316021790555089600260086101000a8154816001600160401b0302191690836001600160401b03160217905550886003819055508760048190555085600581905550846007819055508260000151600260106101000a81548160ff0219169083151502179055508660068190555081600d60008201518160000160006101000a81548163ffffffff021916908363ffffffff16021790555060208201518160000160046101000a81548163ffffffff021916908363ffffffff16021790555060408201518160000160086101000a81548160ff021916908360ff1602179055509050508260200151600260116101000a81548160ff02191690831515021790555080600a90805190602001906200021292919062000228565b505050505050505050505050620005e1565b3390565b82805462000236906200058e565b90600052602060002090601f0160209004810192826200025a5760008555620002a5565b82601f106200027557805160ff1916838001178555620002a5565b82800160010185558215620002a5579182015b82811115620002a557825182559160200191906001019062000288565b50620002b3929150620002b7565b5090565b5b80821115620002b35760008155600101620002b8565b80518015158114620002df57600080fd5b919050565b600082601f830112620002f5578081fd5b81516001600160401b03811115620003115762000311620005cb565b602062000327601f8301601f191682016200055b565b82815285828487010111156200033b578384fd5b835b838110156200035a5785810183015182820184015282016200033d565b838111156200036b57848385840101525b5095945050505050565b60006040828403121562000387578081fd5b6200039360406200055b565b9050620003a082620002ce565b8152620003b060208301620002ce565b602082015292915050565b600060608284031215620003cd578081fd5b620003d960606200055b565b9050620003e68262000414565b8152620003f66020830162000414565b6020820152620004096040830162000441565b604082015292915050565b805163ffffffff81168114620002df57600080fd5b80516001600160401b0381168114620002df57600080fd5b805160ff81168114620002df57600080fd5b60008060008060008060008060008060008b8d036101e081121562000476578788fd5b620004818d62000429565b9b506200049160208e0162000429565b9a5060408d0151995060608d0151985060808d0151975060a08d0151965060c08d01519550604060df1982011215620004c8578485fd5b50620004d560406200055b565b620004e360e08e0162000414565b8152620004f46101008e0162000441565b602082015293506200050b8d6101208e0162000375565b92506200051d8d6101608e01620003bb565b6101c08d01519092506001600160401b038111156200053a578182fd5b620005488e828f01620002e4565b9150509295989b509295989b9093969950565b604051601f8201601f191681016001600160401b0381118282101715620005865762000586620005cb565b604052919050565b600281046001821680620005a357607f821691505b60208210811415620005c557634e487b7160e01b600052602260045260246000fd5b50919050565b634e487b7160e01b600052604160045260246000fd5b6117e680620005f16000396000f3fe6080604052600436106101d15760003560e01c80638ab1d681116100f7578063e43252d711610095578063f2fde38b11610064578063f2fde38b14610681578063f51f96dd146106a1578063fbf3aa21146106b6578063fc0c546a146106da5761037f565b8063e43252d714610617578063e5c3f4a014610637578063e94b2f4414610657578063ee4892e61461066c5761037f565b806393e59dc1116100d157806393e59dc1146105ad578063c4590d3f146105c2578063cf01b90f146105e2578063d18e81b3146106025761037f565b80638ab1d681146105565780638da5cb5b146105765780638ed83271146105985761037f565b806353e092b31161016f578063715018a61161013e578063715018a6146104f7578063750521f51461050c57806378e979251461052c5780637d882097146105415761037f565b806353e092b3146104825780635af5f7ba146104a2578063645006ca146104c257806368e12e88146104d75761037f565b806323af6f8a116101ab57806323af6f8a146103f15780633197cbb614610413578063375c6cd9146104355780633af32abf146104555761037f565b806303ee438c1461038457806314274fef146103af5780631919fed7146103d15761037f565b3661037f57336000908152600c602052604090205460035434108015906101fa57506004543411155b61021f5760405162461bcd60e51b8152600401610216906115b6565b60405180910390fd5b600254600160401b90046001600160401b031661023a6106fd565b1115801561025a57506002546001600160401b03166102576106fd565b10155b6102765760405162461bcd60e51b8152600401610216906114e5565b6006546008546102869034610701565b11156102a45760405162461bcd60e51b815260040161021690611511565b6007546102b18234610701565b11156102cf5760405162461bcd60e51b81526004016102169061157f565b600254600160801b900460ff1615610316573360009081526001602081905260409091205460ff161515146103165760405162461bcd60e51b8152600401610216906114ae565b6008546103239034610701565b6008556103308134610701565b336000818152600c6020526040908190209290925590517f4aff2c4e63da20aaa26764b3e97f557bf5e95b76ddba8f97a156abbecb081846916103749134906113c5565b60405180910390a150005b600080fd5b34801561039057600080fd5b50610399610714565b6040516103a691906113e9565b60405180910390f35b3480156103bb57600080fd5b506103cf6103ca3660046111e2565b6107a2565b005b3480156103dd57600080fd5b506103cf6103ec3660046112fb565b61097f565b3480156103fd57600080fd5b506104066109f4565b6040516103a69190611652565b34801561041f57600080fd5b506104286109fa565b6040516103a69190611697565b34801561044157600080fd5b5061040661045036600461119b565b610a10565b34801561046157600080fd5b5061047561047036600461119b565b610a4e565b6040516103a691906113de565b34801561048e57600080fd5b506103cf61049d3660046111c2565b610a6c565b3480156104ae57600080fd5b506103cf6104bd3660046111c2565b610ac9565b3480156104ce57600080fd5b50610406610b26565b3480156104e357600080fd5b506103cf6104f23660046112ac565b610b2c565b34801561050357600080fd5b506103cf610bfb565b34801561051857600080fd5b506103cf6105273660046111e2565b610c84565b34801561053857600080fd5b50610428610cda565b34801561054d57600080fd5b50610406610ce9565b34801561056257600080fd5b506103cf61057136600461119b565b610cef565b34801561058257600080fd5b5061058b610d4f565b6040516103a691906113b1565b3480156105a457600080fd5b50610406610d5e565b3480156105b957600080fd5b50610475610d64565b3480156105ce57600080fd5b506103cf6105dd366004611313565b610d74565b3480156105ee57600080fd5b506103cf6105fd366004611334565b610dbe565b34801561060e57600080fd5b506104066106fd565b34801561062357600080fd5b506103cf61063236600461119b565b610e70565b34801561064357600080fd5b506103cf61065236600461126e565b610ed6565b34801561066357600080fd5b50610406610f84565b34801561067857600080fd5b50610475610f8a565b34801561068d57600080fd5b506103cf61069c36600461119b565b610f9a565b3480156106ad57600080fd5b5061040661105a565b3480156106c257600080fd5b506106cb611060565b6040516103a69392919061165b565b3480156106e657600080fd5b506106ef611085565b6040516103a692919061167e565b4290565b600061070d82846116db565b9392505050565b600a805461072190611749565b80601f016020809104026020016040519081016040528092919081815260200182805461074d90611749565b801561079a5780601f1061076f5761010080835404028352916020019161079a565b820191906000526020600020905b81548152906001019060200180831161077d57829003601f168201915b505050505081565b600d5463ffffffff166107b36106fd565b10156107d15760405162461bcd60e51b815260040161021690611548565b600d546000906107ef9063ffffffff166107e96106fd565b9061109e565b905060006107fc33610a10565b336000908152600b6020526040812054600d54929350916108359060649061082f908690600160401b900460ff166110aa565b906110b6565b600d5490915060009061085b90869063ffffffff6401000000009091048116906110b616565b9050600061086983836110aa565b905080841061088a5760405162461bcd60e51b81526004016102169061161b565b84811015801561089957508484105b156109085760006108aa868661109e565b90507fe694d079cadbbc2585cc6081719775a86791fda62173318eeb1a715b2b27cd3a888260096040516108e0939291906113fc565b60405180910390a16108f28582610701565b336000908152600b602052604090205550610976565b8484101561097657600061091c828661109e565b90507fe694d079cadbbc2585cc6081719775a86791fda62173318eeb1a715b2b27cd3a88826009604051610952939291906113fc565b60405180910390a16109648582610701565b336000908152600b6020526040902055505b50505050505050565b6109876110c2565b6001600160a01b0316610998610d4f565b6001600160a01b0316146109be5760405162461bcd60e51b8152600401610216906115e6565b6109c66106fd565b6002546001600160401b0316116109ef5760405162461bcd60e51b815260040161021690611438565b600555565b60075481565b600254600160401b90046001600160401b031681565b6005546001600160a01b0382166000908152600c60205260408120549091610a4691670de0b6b3a76400009161082f91906110aa565b90505b919050565b6001600160a01b031660009081526001602052604090205460ff1690565b610a746110c2565b6001600160a01b0316610a85610d4f565b6001600160a01b031614610aab5760405162461bcd60e51b8152600401610216906115e6565b60028054911515600160881b0260ff60881b19909216919091179055565b610ad16110c2565b6001600160a01b0316610ae2610d4f565b6001600160a01b031614610b085760405162461bcd60e51b8152600401610216906115e6565b60028054911515600160801b0260ff60801b19909216919091179055565b60035481565b610b346110c2565b6001600160a01b0316610b45610d4f565b6001600160a01b031614610b6b5760405162461bcd60e51b8152600401610216906115e6565b610b736106fd565b6002546001600160401b031611610b9c5760405162461bcd60e51b815260040161021690611438565b8051600d8054602084015160409094015163ffffffff1990911663ffffffff9384161767ffffffff00000000191664010000000093909416929092029290921768ff00000000000000001916600160401b60ff90921691909102179055565b610c036110c2565b6001600160a01b0316610c14610d4f565b6001600160a01b031614610c3a5760405162461bcd60e51b8152600401610216906115e6565b600080546040516001600160a01b03909116907f8be0079c531659141344cd1fd0a4f28419497f9722a3daafe3b4186f6b6457e0908390a3600080546001600160a01b0319169055565b610c8c6110c2565b6001600160a01b0316610c9d610d4f565b6001600160a01b031614610cc35760405162461bcd60e51b8152600401610216906115e6565b8051610cd690600a9060208401906110c6565b5050565b6002546001600160401b031681565b60065481565b610cf76110c2565b6001600160a01b0316610d08610d4f565b6001600160a01b031614610d2e5760405162461bcd60e51b8152600401610216906115e6565b6001600160a01b03166000908152600160205260409020805460ff19169055565b6000546001600160a01b031690565b60045481565b600254600160801b900460ff1681565b610d7c6110c2565b6001600160a01b0316610d8d610d4f565b6001600160a01b031614610db35760405162461bcd60e51b8152600401610216906115e6565b600391909155600455565b610dc66110c2565b6001600160a01b0316610dd7610d4f565b6001600160a01b031614610dfd5760405162461bcd60e51b8152600401610216906115e6565b610e056106fd565b6002546001600160401b031611610e2e5760405162461bcd60e51b815260040161021690611438565b600280546001600160401b03928316600160401b026fffffffffffffffff0000000000000000199490931667ffffffffffffffff199091161792909216179055565b610e786110c2565b6001600160a01b0316610e89610d4f565b6001600160a01b031614610eaf5760405162461bcd60e51b8152600401610216906115e6565b6001600160a01b03166000908152600160208190526040909120805460ff19169091179055565b610ede6110c2565b6001600160a01b0316610eef610d4f565b6001600160a01b031614610f155760405162461bcd60e51b8152600401610216906115e6565b610f1d6106fd565b6002546001600160401b031611610f465760405162461bcd60e51b815260040161021690611438565b80516009805460209093015160ff166401000000000264ff000000001963ffffffff90931663ffffffff199094169390931791909116919091179055565b60085481565b600254600160881b900460ff1681565b610fa26110c2565b6001600160a01b0316610fb3610d4f565b6001600160a01b031614610fd95760405162461bcd60e51b8152600401610216906115e6565b6001600160a01b038116610fff5760405162461bcd60e51b815260040161021690611468565b600080546040516001600160a01b03808516939216917f8be0079c531659141344cd1fd0a4f28419497f9722a3daafe3b4186f6b6457e091a3600080546001600160a01b0319166001600160a01b0392909216919091179055565b60055481565b600d5463ffffffff80821691640100000000810490911690600160401b900460ff1683565b60095463ffffffff811690640100000000900460ff1682565b600061070d8284611732565b600061070d8284611713565b600061070d82846116f3565b3390565b8280546110d290611749565b90600052602060002090601f0160209004810192826110f4576000855561113a565b82601f1061110d57805160ff191683800117855561113a565b8280016001018555821561113a579182015b8281111561113a57825182559160200191906001019061111f565b5061114692915061114a565b5090565b5b80821115611146576000815560010161114b565b803563ffffffff81168114610a4957600080fd5b80356001600160401b0381168114610a4957600080fd5b803560ff81168114610a4957600080fd5b6000602082840312156111ac578081fd5b81356001600160a01b038116811461070d578182fd5b6000602082840312156111d3578081fd5b8135801515811461070d578182fd5b600060208083850312156111f4578182fd5b82356001600160401b038082111561120a578384fd5b818501915085601f83011261121d578384fd5b81358181111561122f5761122f61179a565b611241601f8201601f191685016116ab565b91508082528684828501011115611256578485fd5b80848401858401378101909201929092529392505050565b60006040828403121561127f578081fd5b61128960406116ab565b6112928361115f565b81526112a06020840161118a565b60208201529392505050565b6000606082840312156112bd578081fd5b6112c760606116ab565b6112d08361115f565b81526112de6020840161115f565b60208201526112ef6040840161118a565b60408201529392505050565b60006020828403121561130c578081fd5b5035919050565b60008060408385031215611325578081fd5b50508035926020909101359150565b60008060408385031215611346578182fd5b61134f83611173565b915061135d60208401611173565b90509250929050565b60008151808452815b8181101561138b5760208185018101518683018201520161136f565b8181111561139c5782602083870101525b50601f01601f19169290920160200192915050565b6001600160a01b0391909116815260200190565b6001600160a01b03929092168252602082015260400190565b901515815260200190565b60006020825261070d6020830184611366565b60006080825261140f6080830186611366565b602083810195909552925463ffffffff8116604084015290931c60ff1660609091015292915050565b60208082526016908201527553616c6520697320616c72656164792061637469766560501b604082015260600190565b60208082526026908201527f4f776e61626c653a206e6577206f776e657220697320746865207a65726f206160408201526564647265737360d01b606082015260800190565b6020808252601f908201527f596f75722061646472657373206973206e6f742077686974656c697374656400604082015260600190565b60208082526012908201527153616c65206973206e6f742061637469766560701b604082015260600190565b60208082526019908201527f4e6f7420656e6f75676820746f6b656e7320746f2073656c6c00000000000000604082015260600190565b6020808252601a908201527f56657374696e67206469646e2774207374617274656420796574000000000000604082015260600190565b6020808252601b908201527f596f7520726561636865642074686520746f6b656e206c696d69740000000000604082015260600190565b602080825260169082015275125b9d985b1a590819195c1bdcda5d08185b5bdd5b9d60521b604082015260600190565b6020808252818101527f4f776e61626c653a2063616c6c6572206973206e6f7420746865206f776e6572604082015260600190565b6020808252601b908201527f596f752068617665206e6f20746f6b656e7320746f20636c61696d0000000000604082015260600190565b90815260200190565b63ffffffff938416815291909216602082015260ff909116604082015260600190565b63ffffffff92909216825260ff16602082015260400190565b6001600160401b0391909116815260200190565b604051601f8201601f191681016001600160401b03811182821017156116d3576116d361179a565b604052919050565b600082198211156116ee576116ee611784565b500190565b60008261170e57634e487b7160e01b81526012600452602481fd5b500490565b600081600019048311821515161561172d5761172d611784565b500290565b60008282101561174457611744611784565b500390565b60028104600182168061175d57607f821691505b6020821081141561177e57634e487b7160e01b600052602260045260246000fd5b50919050565b634e487b7160e01b600052601160045260246000fd5b634e487b7160e01b600052604160045260246000fdfea2646970667358221220ec9049230cda9ae0abac887f3a386db2606b1dacb3b68768c4e7fabc6bc845cb64736f6c63430008010033a26469706673582212206f4dbd62657a06847392f9ead52497aae36aa1f2cba1079f7a12d4f6fd07d38464736f6c63430008010033",
  "linkReferences": {},
  "deployedLinkReferences": {}
}